:020000040000FA
:04000000000E04D01A
:0800080004EF04F082AE0FD0FA
:08001000F66E080EF76E02D037
:080018000CEF04F0000EF86E7D
:100020000900F53C00EF04F00900F53CFBD720EE99
:1000300000F0700ED31282AEFED7900EAB6E260E7D
:10004000AC6E6586020ED56EAB98AE50AE50D76AD8
:10005000D66AF2944ED8D58E4CD8D59EF2B4F7D746
:10006000D6CFAFFFD7CFD4FFAB8821D90F0AECE1B1
:100070000F0E18D900EE04F01AD90F0AF9E0025059
:10008000040A07E00250050A01E111D902C0ECFFA1
:10009000F3D710EE05F0006A016AEDCFF4FFE650E9
:1000A00030D8E250EA62FBD7E150E962F8D701505C
:1000B000F462CAD70050EF62C7D7006A016A0650DF
:1000C000F66E626E0750F76E636E08C0F8FF00EEC2
:1000D0000BF00A0E0560B8D7F9500544F92627D071
:1000E0002FD039D04FD07CD0A8D0B5D0C4D09AD79B
:1000F000FF000400F2B4120082BEFCD782AEFED72D
:100100001200011800C001F0006EE83A0F0B001A4F
:100110000038F00B011A0038E844011AE00B011A0C
:10012000001A120000030200FF8400000000240EE9
:10013000F66E010EF76E000EF86E0A0E0A6E0B6A6E
:100140000900F550A3D8DDDF0A06000E0B5A0A504D
:100150000B10F6E194D00900F550D3DFF6503F0BB9
:10016000FAE1005046EC01F0015046EC01F00A06BD
:10017000000E0B5A0A500B10EEE185D0FF00FF0075
:10018000FF00FF00C00EF616000EF65C000EF758DA
:10019000010EF85802E67F6A17D0000EF65C000EDA
:1001A000F758000EF8580DE6000EF65C030EF758EF
:1001B000000EF85806E77F6A07D0FF00FF00FF0037
:1001C000FF00940E7F6E81D8400EF65EE86AF75A03
:1001D000F85A0A2ED7D74FD0FF00FF00FF00FF00CC
:1001E000C00EF616000EF65C000EF758010EF85819
:1001F00002E67F6A16D0000EF65C000EF758000E7D
:10020000F8580DE6000EF65C030EF758000EF8588D
:1002100006E77F6A06D0FF00FF00FF00FF00840EA4
:100220007F6EEECFF5FF0D00F6503F0BFAE10A00AE
:100230004CD809000A2ED4D71ED07F6A7F80615027
:10024000624A632A23D85DDF0A06000E0B5A0A5061
:100250000B10F4E114D0040E7F6EECCF61FF35D8A3
:100260007FB2FED7624A632A0A06000E0B5A0A5072
:100270000B10F3E100D07F6A055008D842DF005030
:1002800005D8015003D8040E0DD8EFD6036E0F0A1F
:1002900006E00350040A03E00350050A02E1050EDC
:1002A00001D8035004009EA8FED7AD6E1200ABB279
:1002B000FF0004009EAAFDD7AE50026E1200FF00A0
:1002C000FF00FF007F6AF56E0C000400550E7E6E85
:0A02D000AA0E7E6E7F82000012006D
:020000040030CA
:0100000015EA
:0100010045B9
:010002006E8F
:0100030022DA
:0100040001FA
:010005008872
:010006009168
:010008000FE8
:01000900C036
:01000A000FE6
:01000B00E014
:01000C000FE4
:01000D0040B2
:00000001FF
