:020000040000FA
:04000000000E04D01A
:0800080004EF08F082AE0FD0F6
:08001000F66E100EF76E02D02F
:080018000CEF08F0000EF86E79
:100020000900F53C00EF08F00900F53CFBD720EE95
:1000300000F0700ED31282AEFED7900EAB6E260E7D
:10004000AC6E030ED56EAB98AE50AE50D76AD66A82
:10005000F29450D8D58E4ED8D59EF2B4F7D7D6CFDD
:10006000AFFFD730AF32D8A0AF06AB8821D90F0A87
:10007000EAE10F0E18D900EE04F01AD90F0AF9E0E0
:100080000250040A07E00250050A01E111D902C03A
:10009000ECFFF3D710EE05F0006A016AEDCFF4FF34
:1000A000E65030D8E250EA62FBD7E150E962F8D777
:1000B0000150F462C8D70050EF62C5D7006A016AE8
:1000C0000650F66EA96E0750F76EAA6E08C0F8FFCC
:1000D00000EE0BF00A0E0560B6D7F9500544F9267C
:1000E00027D02FD039D04FD07CD0A8D0B5D0C4D015
:1000F00099D7FF000400F2B4120082BEFCD782AE92
:10010000FED71200011800C001F0006EE83A0F0B94
:10011000001A0038F00B011A0038E844011AE00B0D
:10012000011A001A120000030107FF8400000000FA
:10013000260EF66E010EF76E000EF86E0A0E0A6EAF
:100140000B6A0900F550A3D8DDDF0A06000E0B5A32
:100150000A500B10F6E194D00900F550D3DFF650A9
:100160003F0BFAE1005047EC01F0015047EC01F081
:100170000A06000E0B5A0A500B10EEE185D0FF0064
:10018000FF00FF00FF00C00EF616000EF65C000E2A
:10019000F758010EF85802E6A66A17D0000EF65C72
:1001A000000EF758000EF8580DE6000EF65C030E30
:1001B000F758000EF85806E7A66A07D0FF00FF00C0
:1001C000FF00FF00940EA66E81D8400EF65EE86A2E
:1001D000F75AF85A0A2ED7D74FD0FF00FF00FF007A
:1001E000FF00F80EF616000EF65C000EF758010E32
:1001F000F85802E6A66A16D0000EF65C000EF75814
:10020000000EF8580DE6000EF65C030EF758000ECF
:10021000F85806E7A66A06D0FF00FF00FF00FF00BF
:10022000840EA66EEECFF5FF0D00F650070BFAE137
:100230000A004CD809000A2ED4D71ED0A66AA68080
:10024000A850A94AAA2A23D85DDF0A06000E0B5A35
:100250000A500B10F4E114D0040EA66EECCFA8FFE8
:1002600035D8A6B2FED7A94AAA2A0A06000E0B5A0A
:100270000A500B10F3E100D0A66A055008D842DFFF
:10028000005005D8015003D8040E0DD8EFD6036EE8
:100290000F0A06E00350040A03E00350050A02E1D6
:1002A000050E01D8035004009EA8FED7AD6E1200C3
:1002B000ABB2FF0004009EAAFDD7AE50026E120042
:1002C000FF00FF00FF00A66AF56E0C000400550E4B
:0C02D000A76EAA0EA76EA6820000120006
:020000040030CA
:0100010025D9
:010002000EEF
:010003000EEE
:010004008378
:0100050003F7
:010006008178
:01000800FFF8
:01000900C036
:01000A00FFF6
:01000B00E014
:01000C00FFF4
:01000D0040B2
:00000001FF
